:100000008316031387018312003087000608A200BD
:100010000A200628221C0D281028A21C13281628A6
:10002000A21C19281C28221D1F283128221D2B281C
:100030003928221D22283528221D2E283C28A21DC1
:1000400025284028A21D282844288130A3004728BD
:10005000E730A30047284930A30047284330A300D6
:1000600047282730A300472808001330A30047285B
:1000700008001130A3004728C730A3004728080014
:100080000130A300472808000330A30047282308B5
:0400900087000800DD
:02400E00713F00
:00000001FF
