:100000008312031341309F008316031307308100CE
:100010000E309F0005148312031383168801870195
:10002000FF308600831200308600003088000030E8
:1000300086000E30AD003230AE000330B400003028
:10004000AB000030AC000130B5000130B60002302A
:10005000B7000330B8000430B9000030C2001330DC
:10006000C3000830C400F92007210030AB00003085
:10007000AC0071207B203D203B281221122112214F
:1000800012211221122112211221122112211221D8
:100090001221851C3D2835185428B5185C283519BF
:1000A0006228B519682808000230B5008D215D214D
:1000B0003A08BC001D2108000430B5004208BC000D
:1000C0001D2108000830B5004308BC001D210800B0
:1000D0000130B5004408BC001D21080071207B20C0
:1000E0000800E920AB0A2D08B300B30B78280800FC
:1000F000E920AB0A752897209720AC0A2E08B20099
:10010000B20B8328080097209720AC0A8028A720EC
:100110001221AB201221AF201221B3200800B320FE
:100120001221AF201221AB201221A7200800B720F6
:100130001221BB201221BF201221C3200800C3209E
:100140001221BF201221BB201221B72008000C3041
:10015000A100C72008000630A100C7200800033016
:10016000A100C72008000930A100C72008000C30FA
:10017000A100CA2008000630A100CA2008000330F0
:10018000A100CA2008000930A100CA2008002108E7
:10019000880008000812881208138813A10DA10D09
:1001A000A10DA10D2108880408005030A600A60B5F
:1001B000DA28080097209720AC0AB121D7285030C0
:1001C000A700A70BE42808009F209F20B121AC03C3
:1001D000E1281130A800A80BEE280800872087200E
:1001E000EB281130BC00BC0BF62808008F208F20B4
:1001F000F3280930A900A90BFE280800E920AB0A62
:10020000B121D520E920AB0AB121DF20FB28F12064
:10021000F1202B08AA00AA03AA0B0F290800F1203D
:10022000F1200B295230A2000230A300A20B1929A1
:10023000A30B16291B29000008003C1C2029232998
:10024000BC1C26292929BC1C2C292F293C1D3229FC
:1002500044293C1D3E294C293C1D352948293C1D7B
:1002600041294F29BC1D38295329BC1D3B29572939
:100270008130A1005A29E730A1005A294930A10054
:100280005A294330A1005A292730A1005A290800D1
:100290001330A1005A2908001130A1005A29C73093
:1002A000A1005A2908000130A1005A290800033092
:1002B000A1005A292108870008000930BA00D2306D
:1002C0003B0203180800BA03C2303B0203180800BF
:1002D000BA03AE303B0203180800BA039E303B025B
:1002E00003180800BA038A303B0203180800BA0357
:1002F00075303B0203180800BA0352303B02031862
:100300000800BA0333303B0203180800BA031C305C
:100310003B0203180800BA0308000315A0210B11C3
:100320001F151F1991291E08BD003D08BB005D2146
:10033000080020303D029E2987178D29BB138D2987
:10034000FF30BF00C000C100A6210800BF0BA629D6
:10035000AA210800C00BAA29AE210800C10BAE29B2
:1003600008008D215D213A08BC001D213A08430296
:100370000318C6213A084202031CBF2108003A08AC
:10038000C2002B08AD002C08AE0008003A08C300DC
:02039000080063
:02400E00713F00
:00000001FF
