:100000008312031341309F008316031307308100CE
:100010000E309F0005148312031383168601870197
:100020008817831200308600003088000E30AD0043
:100030003230AE000330B4000030AB000030AC0012
:100040000130B5000130B6000230B7000330B8000F
:100050000430B9000030C2001330C3000830C400BF
:10006000EB20692073203520332802210221022150
:100070000221022102210221022102210221022168
:100080000221881C352835184C28B51854283519F4
:100090005A28B519602808000230B5007D214D218D
:1000A0003A08BC000D2108000430B5004208BC002D
:1000B0000D2108000830B5004308BC000D210800E0
:1000C0000130B5004408BC000D21080069207320F0
:1000D0000800E320AB0A2D08B300B30B702808001A
:1000E000E320AB0A6D2891209120AC0A2E08B200C3
:1000F000B20B7B28080091209120AC0A7828A1201F
:100100000221A5200221A9200221AD200221080000
:10011000AD200221A9200221A5200221A120022137
:100120000800B1200221B5200221B9200221BD2002
:100130000800BD200221B9200221B5200221B120F2
:1001400008000C30A100C12008000630A100C12029
:1001500008000330A100C12008000930A100C1201F
:1001600008000C30A100C42008000630A100C42003
:1001700008000330A100C42008000930A100C420F9
:10018000080021088600080006128612061386134E
:10019000A10DA10DA10DA10D21088604080050306C
:1001A000A600A60BD428080091209120AC0AA1211A
:1001B000D1285030A700A70BDE28080099209920ED
:1001C000A121AC03DB281130A800A80BE828080007
:1001D0007F207F20E5280930A900A90BF02808001E
:1001E000E320AB0AA121CF20E320AB0AA121D92033
:1001F000ED28FF30AA00AA0B00290030AB00080050
:100200008820FB285230A2000230A300A20B09294B
:10021000A30B06290B29000008003C1C10291329F8
:10022000BC1C16291929BC1C1C291F293C1D22296C
:1002300034293C1D2E293C293C1D252938293C1DEB
:1002400031293F29BC1D28294329BC1D2B294729B9
:100250008130A1004A29E730A1004A294930A10094
:100260004A294330A1004A292730A1004A29080021
:100270001330A1004A2908001130A1004A29C730D3
:10028000A1004A2908000130A1004A2908000330D2
:10029000A1004A292108870008000930BA00D2309D
:1002A0003B0203180800BA03C2303B0203180800DF
:1002B000BA03AE303B0203180800BA039E303B027B
:1002C00003180800BA038A303B0203180800BA0377
:1002D00075303B0203180800BA0352303B02031882
:1002E0000800BA0333303B0203180800BA031C307D
:1002F0003B0203180800BA030800031590210B11F4
:100300001F151F1981291E08BD003D08BB004D2186
:10031000080020303D028E2987177D29BB137D29D7
:10032000FF30BF00C000C10096210800BF0B962916
:100330009A210800C00B9A299E210800C10B9E2912
:1003400008007D214D213A08BC000D213A084302E6
:100350000318B6213A084202031CAF2108003A08EC
:10036000C2002B08AD002C08AE0008003A08C300FC
:02037000080083
:02400E00713F00
:00000001FF
