:1000000083168601851787018817831200308600C2
:10001000003088000E30AD003230AE000330B40046
:100020000030AB000030AC000130B5000130B6004C
:100030000230B7000330B8000430B900881C1E2815
:1000400035182D28B518332835193928B5193F2802
:100050001E2848205220C820D4200230B50036087F
:10006000B400E8201E280430B5003708B400E820AA
:100070001E280830B5003808B400E8201E280130DA
:10008000B5003908B400E8201E2848205220080096
:10009000C020AB0A2D08B300B30B4F280800C020C6
:1000A000AB0A4C2870207020AC0A2E08B200B20BAC
:1000B0005A28080070207020AC0A57288020DD20C4
:1000C0008420DD208820DD208C20DD2008008C208D
:1000D000DD208820DD208420DD208020DD20080038
:1000E0009020DD209420DD209820DD209C20080039
:1000F0009C20DD209820DD209420DD209020080029
:100100000C30A100A02008000630A100A0200800AB
:100110000330A100A02008000930A100A0200800A1
:100120000C30A100A32008000630A100A320080085
:100130000330A100A32008000930A100A32008007B
:100140002108860008000612861206138613A10DE8
:10015000A10DA10DA10D2108860408000A30A600FA
:10016000A60BB328080070207020AC0AB028053018
:10017000A700A70BBC28080078207820AC03B9287A
:100180000530A800A80BC52808005E205E20C22804
:100190001130A900A90BCD280800C020AB0AAE2061
:1001A000C020AB0AB720CA28FF30AA00AA0BDB2860
:1001B0000030AB0008006720D6285230A200023081
:1001C000A300A20BE428A30BE128E6280000080006
:1001D000341CEB28EE28B41CF128F428B41CF728B2
:1001E000FA28341DFD280F29341D09291729341D2B
:1001F00000291329341D0C291A29B41D03291E298D
:10020000B41D062922298130A1002529E730A1004B
:1002100025294930A10025294330A100252927306F
:10022000A100252908001330A1002529080011305C
:10023000A1002529C730A100252908000130A1000F
:10024000252908000330A10025292108870008007E
:02400E00713F00
:00000001FF
