:100000008312031341309F008316031307308100CE
:100010000E309F0005148312031383168701860197
:1000200088018312831609148510051185110512A4
:100030000814881408158815891483120030860066
:1000400000308800003086000030AB000030AC008B
:100050000130B5000130B6000230B7000330B800FF
:100060000430B9000030C2001330C3000830C400AF
:10007000052113210030AB000030AC007D2087202B
:100080004408CA004408CC004208CB004308CD0015
:100090004A2048281E211E211E211E211E211E210C
:1000A0001E211E211E210918D52189182522851EF1
:1000B0004A2835186228B518682835196E28B519E8
:1000C000742808000230B5004208BC00292108004D
:1000D0000430B5004A08BC00292108000830B500EA
:1000E0004C08BC00292108000130B5004408BC00C0
:1000F000292108007D2087200800F520AB0A2D0863
:10010000B300B30B84280800F520AB0A8128A32094
:10011000A320AC0A2E08B200B20B8F280800A3203F
:10012000A320AC0A8C28B3201E21B7201E21BB209F
:100130001E21BF200800BF201E21BB201E21B7208A
:100140001E21B3200800C3201E21C7201E21CB2062
:100150001E21CF200800CF201E21CB201E21C7202A
:100160001E21C32008000C30A100D3200800063057
:10017000A100D32008000330A100D32008000930DB
:10018000A100D32008000C30A100D62008000630C2
:10019000A100D62008000330A100D62008000930B5
:1001A000A100D62008002108860008000612861249
:1001B00006138613A10DA10DA10DA10D2108860422
:1001C00008005030A600A60BE6280800A320A320B4
:1001D000AC0ABD21E3285030A700A70BF028080087
:1001E000AB20AB20BD21AC03ED281130A800A80B3B
:1001F000FA28080093209320F7281130D200D20B60
:10020000022908009B209B20FF280930A900A90B88
:100210000A290800F520AB0ABD21E120F520AB0A30
:10022000BD21EB200729FD20FD202B08AA00AA03F1
:10023000AA0B1B290800FD20FD2017295230A2001F
:100240000230A300A20B2529A30B22292729000095
:1002500008003C1C2C292F29BC1C32293529BC1C28
:1002600038293B293C1D3E2950293C1D4A29582943
:100270003C1D412954293C1D4D295B29BC1D4429A5
:100280005F29BC1D472963298130A1006629E73019
:10029000A10066294930A10066294330A1006629E2
:1002A0002730A100662908001330A1006629080044
:1002B0001130A1006629C730A1006629080001306D
:1002C000A100662908000330A100662921088700E3
:1002D00008000930BA00D2303B0203180800BA0304
:1002E000C2303B0203180800BA03AE303B020318C9
:1002F0000800BA039E303B0203180800BA038A3094
:100300003B0203180800BA0375303B0203180800CB
:10031000BA0352303B0203180800BA0333303B02E1
:1003200003180800BA031C303B0203180800BA0384
:1003300008000315AC210B111F151F199D291E085C
:10034000BD003D08BB006921080020303D02AA29FC
:1003500087179929BB139929FF30BF00C000C1003E
:10036000B2210800BF0BB229B6210800C00BB62984
:10037000BA210800C10BBA290800992169213A085D
:10038000BC0029213A0843020318D2213A0842024C
:10039000031CCB2108003A08C2002B08AD002C0832
:1003A000AE0008003A08C300080097220130490255
:1003B00003190D22972202304902031913229722B2
:1003C0000330490203191922972204304902031904
:1003D0001F2297220530490203194722C90A080043
:1003E0004518FD29FF29C518012A032A4519052AA0
:1003F000072AC519092A0B2A08000816F32908122A
:10040000F3298816F6298812F6290817F9290813FE
:10041000F9298817FC298813FC294A08C500F0210E
:1004200009180D2A08004B08C500F0210918132AE5
:1004300008004C08C500F0210918192A08004D08C9
:10044000C500F02109181F2A080097220130480230
:100450000319692297220230480203196F2297225A
:100460000330480203197522972204304802031909
:100470007B2297220530480203194022C80A08004F
:100480000030C80081228C228918402A08000030E0
:10049000C9000918472A080045145F2A45105F2A39
:1004A000C514622AC510622A4515652A4511652AB8
:1004B000C515682AC511682A88194C2A4E2A0819B8
:1004C000502A522A8818542A562A0818582A5A2A72
:1004D00008005C224508CE008918692A08005C22C1
:1004E0004508CF0089186F2A08005C224508D00013
:1004F0008918752A08005C224508D10089187B2AD2
:1005000008004B084F02031C8B2A862A4E08CA009B
:100510004F08CB00080008004D085102031C912A27
:10052000962A5008CC005108CD00080008008730FA
:10053000C6001430C700C60B9E2AC70B9B2AA02AF0
:020540000800B1
:02400E00713F00
:00000001FF
