:10000000831686018717880183120030860000302E
:100010008800122062201220692012206220122003
:100020006920092834207020382070203C2070205E
:10003000402070200800402070203C207020382094
:100040007020342070200800442070204820702048
:100050004C20702050200800502070204C20702030
:1000600048207020442008000C30A10054200800D3
:100070000630A100542008000330A10054200800DD
:100080000930A100542008000C30A10057200800BE
:100090000630A100572008000330A10057200800B7
:1000A0000930A10057200800210886000800061228
:1000B000861206138613A10DA10DA10DA10D210815
:1000C000860408000A30A600A60B67280800242032
:1000D00064280A30A600A60B6E2808002C206B2886
:1000E0005230A2000230A300A20B7728A30B742881
:0600F00079280000080061
:02400E00713F00
:00000001FF
