:1000000083168601851787018817831200308600C2
:10001000003088000E30AD003230AE000330B40046
:100020000030AB000030AC000130B5000130B6004C
:100030000230B7000330B8000430B90001210121BB
:1000400001210121012101210121012101210121A0
:1000500001210121881C1E2835183928B51845288A
:1000600035195128B5195D281E286C207620EC2002
:10007000F82001210121012101210121012102306A
:10008000B5003608C0000C211E28012101210121E4
:100090000121012101210430B5003708C0000C21E5
:1000A0001E28012101210121012101210121083006
:1000B000B5003808C0000C211E28012101210121B2
:1000C0000121012101210130B5003908C0000C21B6
:1000D0001E286C2076200800E420AB0A2D08B3000F
:1000E000B30B73280800E420AB0A702894209420F6
:1000F000AC0A2E08B200B20B7E280800942094208F
:10010000AC0A7B28A4200121A8200121AC200121D8
:10011000B02001210800B0200121AC200121A8203D
:100120000121A42001210800B4200121B8200121CF
:10013000BC200121C0200800C0200121BC200121D9
:10014000B8200121B42008000C30A100C420080010
:100150000630A100C42008000330A100C42008001C
:100160000930A100C42008000C30A100C7200800FD
:100170000630A100C72008000330A100C7200800F6
:100180000930A100C72008002108860008000612D7
:10019000861206138613A10DA10DA10DA10D210834
:1001A000860408000A30A600A60BD7280800942071
:1001B0009420AC0AD4280530A700A70BE02808003B
:1001C0009C209C20AC03DD280530A800A80BE92862
:1001D000080082208220E6281130A900A90BF1280E
:1001E0000800E420AB0AD220E420AB0ADB20EE2892
:1001F000FF30AA00AA0BFF280030AB0008008B20BC
:10020000FA285230A2000230A300A20B0829A30B47
:1002100005290A2900000800401C0F291229C01CCA
:1002200015291829C01C1B291E29401D21293329E5
:10023000401D2D293B29401D24293729401D3029E7
:100240003E29C01D27294229C01D2A29462981305F
:10025000A1004929E730A10049294930A1004929D5
:100260004330A10049292730A10049290800133053
:10027000A100492908001130A1004929C730A10077
:10028000492908000130A100492908000330A100D4
:0802900049292108870008003C
:02400E00713F00
:00000001FF
