:10000000831686018717880183120030860000302E
:1000100088000E30AD000E30AE000030AB00003076
:10002000AC001820222013289620A2201820B628E1
:100030008E20AB0A2D08B300B30B1F2808008E20BA
:10004000AB0A1C283E20AC0A2E08B200B20B2928AD
:1000500008003E20AC0A26284E20AB205220AB20C0
:100060005620AB205A20AB2008005A20AB20562047
:10007000AB205220AB204E20AB2008005E20AB20EE
:100080006220AB206620AB206A2008006A20AB20EB
:100090006620AB206220AB205E2008000C30A1005F
:1000A0006E2008000630A1006E2008000330A10079
:1000B0006E2008000930A1006E2008000C30A1005D
:1000C000712008000630A100712008000330A10053
:1000D000712008000930A100712008002108860065
:1000E00008000612861206138613A10DA10DA10D9C
:1000F000A10D2108860408000A30A600A60B81285D
:1001000008003E203E20AC0A7E280530A700A70B41
:100110008A28080046204620AC0387280530A8001E
:10012000A80B932808002C202C2090281130A9001F
:10013000A90B9B2808008E20AB0A7C208E20AB0ADE
:1001400085209828FF30AA00AA0BA9280030AB0010
:1001500008003520A4285230A2000230A300A20BD0
:0C016000B228A30BAF28B4280000080050
:02400E00713F00
:00000001FF
