:10000000831686018701881783120030860000302E
:1000100088000E30AD003230AE000330B400003046
:10002000AB000030AC000130B5000130B60002304A
:10003000B7000330B8000430B9000030C2001330FC
:10004000C3000830C400DF20ED205D206720292098
:100050002728F620F620F620F620F620F620F620B7
:10006000F620F620F620F620F620881C29283518E0
:100070004028B518482835194E28B51954280800C5
:100080000230B500712141213A08BC00012108006D
:100090000430B5004208BC00012108000830B5005A
:1000A0004308BC00012108000130B5004408BC0031
:1000B000012108005D2067200800D720AB0A2D0829
:1000C000B300B30B64280800D720AB0A6128852051
:1000D0008520AC0A2E08B200B20B6F2808008520DC
:1000E0008520AC0A6C289520F6209920F6209D20CA
:1000F000F620A120F6200800A120F6209D20F62061
:100100009920F6209520F6200800A520F620A920A9
:10011000F620AD20F620B1200800B120F620AD2059
:10012000F620A920F620A52008000C30A100B5205B
:1001300008000630A100B52008000330A100B5205A
:1001400008000930A100B52008000C30A100B8203B
:1001500008000630A100B82008000330A100B82034
:1001600008000930A100B820080021088600080016
:100170000612861206138613A10DA10DA10DA10D65
:10018000210886040800A030A600A60BC828080095
:1001900085208520AC0AA221C528A030A700A70B86
:1001A000D22808008D208D20A221AC03CF28113049
:1001B000A800A80BDC28080073207320D928113070
:1001C000A900A90BE4280800D720AB0AA221C3206C
:1001D000D720AB0AA221CD20E128FF30AA00AA0B2C
:1001E000F4280030AB0008007C20EF285230A20039
:1001F0000230A300A20BFD28A30BFA28FF28000061
:1002000008003C1C04290729BC1C0A290D29BC1C18
:10021000102913293C1D162928293C1D2229302983
:100220003C1D19292C293C1D25293329BC1D1C29BD
:100230003729BC1D1F293B298130A1003E29E73009
:10024000A1003E294930A1003E294330A1003E29AA
:100250002730A1003E2908001330A1003E290800E4
:100260001130A1003E29C730A1003E29080001300D
:10027000A1003E2908000330A1003E292108870083
:1002800008000930BA00D2303B0203180800BA0354
:10029000C2303B0203180800BA03AE303B02031819
:1002A0000800BA039E303B0203180800BA038A30E4
:1002B0003B0203180800BA0375303B02031808001C
:1002C000BA0352303B0203180800BA0333303B0232
:1002D00003180800BA031C303B0203180800BA03D5
:1002E00008008312031341309F0083160313073065
:1002F00081000E309F000514831203130315912112
:100300000B111F151F1982291E08BD003D08BB00D7
:100310004121080020303D028F2987177E29BB1319
:100320007E29FF30BF00C000C10097210800BF0B2D
:1003300097299B210800C00B9B299F210800C10B16
:100340009F29080041213A08BC0001213A084302D4
:100350000318B6213A084202031CAF2108003A08EC
:10036000C2002B08AD002C08AE0008003A08C300FC
:02037000080083
:02400E00713F00
:00000001FF
