:10000000831686018717880183120030860000302E
:1000100088000E30AD003230AE000030AB00003052
:10002000AC001820222013289820A4201820B828DB
:100030009020AB0A2D08B300B30B1F2808009020B6
:10004000AB0A1C2840204020AC0A2E08B200B20B9C
:100050002A28080040204020AC0A27285020AD2044
:100060005420AD205820AD205C20AD2008005C203D
:10007000AD205820AD205420AD205020AD200800E8
:100080006020AD206420AD206820AD206C200800E9
:100090006C20AD206820AD206420AD2060200800D9
:1000A0000C30A100702008000630A100702008006C
:1000B0000330A100702008000930A1007020080062
:1000C0000C30A100732008000630A1007320080046
:1000D0000330A100732008000930A100732008003C
:1000E0002108860008000612861206138613A10D49
:1000F000A10DA10DA10D2108860408000A30A6005B
:10010000A60B8328080040204020AC0A8028053038
:10011000A700A70B8C28080048204820AC0389289A
:100120000530A800A80B952808002E202E20922824
:100130001130A900A90B9D2808009020AB0A7E2051
:100140009020AB0A87209A28FF30AA00AA0BAB2880
:100150000030AB0008003720A6285230A200023041
:10016000A300A20BB428A30BB128B62800000800F6
:02400E00713F00
:00000001FF
