:100000008316860188018701831200308600003044
:1000100088000E30AD003230AE000330B400003046
:10002000AB000030AC00BC2014281C2026209C20F3
:10003000A8201C20262008009420AB0A2D08B3001D
:10004000B30B232808009420AB0A20284420442026
:10005000AC0A2E08B200B20B2E280800442044201F
:10006000AC0A2B285420B1205820B1205C20B120AC
:100070006020B12008006020B1205C20B120582011
:10008000B1205420B12008006420B1206820B120A4
:100090006C20B120702008007020B1206C20B120AD
:1000A0006820B120642008000C30A10074200800F2
:1000B0000630A100742008000330A100742008005D
:1000C0000930A100742008000C30A100772008003E
:1000D0000630A100772008000330A1007720080037
:1000E0000930A100772008002108860008000612C8
:1000F000861206138613A10DA10DA10DA10D2108D5
:10010000860408000A30A600A60B872808004420B1
:100110004420AC0A84280530A700A70B90280800CB
:100120004C204C20AC038D280530A800A80B992842
:1001300008003220322096281130A900A90BA128EE
:1001400008009420AB0A82209420AB0A8B209E28C2
:10015000FF30AA00AA0BAF280030AB0008003B20FC
:10016000AA285230A2000230A300A20BB828A30B89
:10017000B528BA2800000800341CBF28C228B41CC7
:10018000C528C828B41CCB28CE28341DD128E32884
:10019000341DDD28EB28341DD428E728341DE02841
:1001A000EE28B41DD728F228B41DDA28F6288130AD
:1001B000A100F928E730A100F9284930A100F92869
:1001C0004330A100F9282730A100F9280800133096
:1001D000A100F92808001130A100F928C730A100BA
:1001E000F92808000130A100F92808000330A10017
:0801F000F9282108870008002E
:02400E00713F00
:00000001FF
