:1000000083160313FF308600FF308800003087001E
:1000100083120313B720B720861B5928061B5C28C0
:10002000861A5F28061A6228861965280619682824
:1000300086186B2806186E28881B7128081B7428E0
:100040000A28B720B720B720B720B720B72021084B
:10005000A2007720A10A09302102031930282128A3
:10006000B720B720B720B720B720B7200930A200AB
:100070007720B720B720B720B720B720B7207F3030
:1000800087008713B720B720861B5928061B5C28DA
:10009000861A5F28061A62288619652806196828B4
:1000A00086186B2806186E28881B7128081B742870
:1000B0003F280030A10021280130A1002128023072
:1000C000A10021280330A10021280430A10021280B
:1000D0000530A10021280630A10021280730A10009
:1000E00021280830A10008000930A1002128221C85
:1000F0007A287D28A21C80288328A21C862889288B
:10010000221D8C289E28221D9828A628221D8F2873
:10011000A228221D9B28A928A21D9228AD28A21D35
:100120009528B1288130A300B428E730A300B42873
:100130004930A300B4284330A300B4282730A300DB
:10014000B42808001330A300B42808001130A3001D
:10015000B428C730A300B42808000130A300B42895
:1001600008000330A300B428230887000800523099
:10017000A5000230A600A50BBE28A60BBB28C028F0
:040180000000080073
:02400E00713F00
:00000001FF
