:1000000083160313FF308600F0308700831203133A
:100010004020402040204020402040200618212041
:10002000861825200619292086192D20061A312028
:10003000861A3520061B3920861B3D2021088700A3
:1000400008282108003EA10008002108013EA10067
:1000500008002108023EA10008002108033EA1007B
:1000600008002108043EA10008002108053EA10067
:1000700008002108063EA10008000030A100080089
:100080004630A2000E30A300A20B4728A30B442841
:06009000492800000800F1
:02400E00713F00
:00000001FF
